{
  "contractName": "Game",
  "abi": [
    {
      "constant": true,
      "inputs": [],
      "name": "player2",
      "outputs": [
        {
          "name": "",
          "type": "address"
        }
      ],
      "payable": false,
      "stateMutability": "view",
      "type": "function"
    },
    {
      "constant": true,
      "inputs": [],
      "name": "player1_score",
      "outputs": [
        {
          "name": "",
          "type": "uint256"
        }
      ],
      "payable": false,
      "stateMutability": "view",
      "type": "function"
    },
    {
      "constant": true,
      "inputs": [],
      "name": "player1",
      "outputs": [
        {
          "name": "",
          "type": "address"
        }
      ],
      "payable": false,
      "stateMutability": "view",
      "type": "function"
    },
    {
      "constant": true,
      "inputs": [],
      "name": "player2_score",
      "outputs": [
        {
          "name": "",
          "type": "uint256"
        }
      ],
      "payable": false,
      "stateMutability": "view",
      "type": "function"
    },
    {
      "anonymous": false,
      "inputs": [
        {
          "indexed": false,
          "name": "_addr",
          "type": "address"
        }
      ],
      "name": "SetPlayerOne",
      "type": "event"
    },
    {
      "anonymous": false,
      "inputs": [
        {
          "indexed": false,
          "name": "_addr",
          "type": "address"
        }
      ],
      "name": "SetPlayerTwo",
      "type": "event"
    },
    {
      "constant": false,
      "inputs": [],
      "name": "setPlayerOne",
      "outputs": [],
      "payable": false,
      "stateMutability": "nonpayable",
      "type": "function"
    },
    {
      "constant": false,
      "inputs": [],
      "name": "setPlayerTwo",
      "outputs": [],
      "payable": false,
      "stateMutability": "nonpayable",
      "type": "function"
    },
    {
      "constant": false,
      "inputs": [],
      "name": "scorePlayer1",
      "outputs": [],
      "payable": false,
      "stateMutability": "nonpayable",
      "type": "function"
    },
    {
      "constant": false,
      "inputs": [],
      "name": "scorePlayer2",
      "outputs": [],
      "payable": false,
      "stateMutability": "nonpayable",
      "type": "function"
    }
  ],
  "bytecode": "0x60806040526000600255600060035534801561001a57600080fd5b506105058061002a6000396000f3fe608060405234801561001057600080fd5b50600436106100885760003560e01c80638977b2671161005b5780638977b267146100f5578063d30895e414610113578063d5528bf11461015d578063eb9d62d11461016757610088565b80632633d9681461008d5780633ac7407e1461009757806359a5f12d146100a15780637e05495a146100eb575b600080fd5b610095610185565b005b61009f6102ef565b005b6100a9610459565b604051808273ffffffffffffffffffffffffffffffffffffffff1673ffffffffffffffffffffffffffffffffffffffff16815260200191505060405180910390f35b6100f361047f565b005b6100fd610493565b6040518082815260200191505060405180910390f35b61011b610499565b604051808273ffffffffffffffffffffffffffffffffffffffff1673ffffffffffffffffffffffffffffffffffffffff16815260200191505060405180910390f35b6101656104bf565b005b61016f6104d3565b6040518082815260200191505060405180910390f35b600073ffffffffffffffffffffffffffffffffffffffff16600160009054906101000a900473ffffffffffffffffffffffffffffffffffffffff1673ffffffffffffffffffffffffffffffffffffffff1614610249576040517f08c379a00000000000000000000000000000000000000000000000000000000081526004018080602001828103825260128152602001807f506c6179657220616c726561647920736574000000000000000000000000000081525060200191505060405180910390fd5b33600160006101000a81548173ffffffffffffffffffffffffffffffffffffffff021916908373ffffffffffffffffffffffffffffffffffffffff1602179055507ff1eb18dc35974d933e55f9601834ab032bccb26417302458d1aadbf5364f9f6c33604051808273ffffffffffffffffffffffffffffffffffffffff1673ffffffffffffffffffffffffffffffffffffffff16815260200191505060405180910390a1565b600073ffffffffffffffffffffffffffffffffffffffff16600060019054906101000a900473ffffffffffffffffffffffffffffffffffffffff1673ffffffffffffffffffffffffffffffffffffffff16146103b3576040517f08c379a00000000000000000000000000000000000000000000000000000000081526004018080602001828103825260128152602001807f506c6179657220616c726561647920736574000000000000000000000000000081525060200191505060405180910390fd5b33600060016101000a81548173ffffffffffffffffffffffffffffffffffffffff021916908373ffffffffffffffffffffffffffffffffffffffff1602179055507fb8c70fd0736b0b0ea38041214d92a742101292d9aec7137ff7c618854aa99a1a33604051808273ffffffffffffffffffffffffffffffffffffffff1673ffffffffffffffffffffffffffffffffffffffff16815260200191505060405180910390a1565b600160009054906101000a900473ffffffffffffffffffffffffffffffffffffffff1681565b600260008154809291906001019190505550565b60025481565b600060019054906101000a900473ffffffffffffffffffffffffffffffffffffffff1681565b600360008154809291906001019190505550565b6003548156fea165627a7a723058202e37d64f90f10d4e307ae235218c0edf8a402809d52de44c0d1cf9cd96c1e5960029",
  "source": "pragma solidity ^0.5.0;\n\ncontract Game {\n\n  bool gameActive;\n  address payable public player1;\n  address payable public player2;\n  uint public player1_score = 0;\n  uint public player2_score = 0;\n\n  event SetPlayerOne(address _addr);\n  event SetPlayerTwo(address _addr);\n\n  function setPlayerOne() public {\n      require(player1 == address(0), \"Player already set\");\n      player1 = msg.sender;\n      emit SetPlayerOne(msg.sender);\n  }\n\n  function setPlayerTwo() public {\n      require(player2 == address(0), \"Player already set\");\n      player2 = msg.sender;\n      emit SetPlayerTwo(msg.sender);\n  }\n\n  function scorePlayer1() public {\n      player1_score++;\n  }\n\n  function scorePlayer2() public {\n      player2_score++;\n  }\n\n}",
  "sourcePath": "/Users/beacon/lambda/pmgroup/game_testing/contracts/Game.sol",
  "compiler": {
    "name": "solc",
    "version": "0.5.8+commit.23d335f2.Emscripten.clang"
  },
  "schemaVersion": "3.0.11",
  "updatedAt": "2019-07-14T04:30:37.304Z",
  "devdoc": {
    "methods": {}
  },
  "userdoc": {
    "methods": {}
  }
}